:020000040800F2
:10000000F007002059020008712A0008692A000838
:100010006D2A000851040008453300080000000064
:10002000000000000000000000000000C52B0008D8
:100030006D04000800000000752A0008C92B0008A4
:1000400073020008730200087302000873020008BC
:1000500073020008730200087302000873020008AC
:10006000730200087104000873020008730200089C
:10007000730200087302000873020008730200088C
:1000800055040008610400087302000873020008A8
:10009000730200087302000873020008730200086C
:1000A000730200087302000873020008730200085C
:1000B000E12B0008000000000000000073020008AF
:1000C000730200087302000873020008730200083C
:1000D0007302000873020008393300087302000835
:1000E0007302000873020008000000000000000016
:1000F0000000000000000000000000000000000000
:1001000000000000730200080000000073020008F5
:1001100000000000000000007302000873020008E5
:1001200073020008730200087302000873020008DB
:100130007302000800000000000000000000000042
:100140007302000873020008730200080000000038
:1001500073020008730200087302000873020008AB
:100160007302000873020008730200080000000018
:100170007302000873020008000000000000000085
:1001800073020008730200087302000800F002F80E
:1001900000F052F814A696E8000CB244B344DA45D5
:1001A00001D100F049F8BAE80F000FA696E8300038
:1001B000A5EB040504EB0607AAEB0704A7F101076A
:1001C0004FEA15154FEA3414A4F10104AC4201D3EF
:1001D00000F032F813F0010F18BFFB1A43F00103CF
:1001E00000F001F8DBE71847D0380000F0380000D5
:1001F000103A24BF78C878C1FAD8520724BF30C853
:1002000030C144BF04680C607047000070470000B4
:100210000023002400250026103A28BF78C1FBD80F
:10022000520728BF30C148BF0B6070471FB503F0AD
:10023000FAFB1FBD10B510BD00F0D0F81146FFF756
:10024000F5FF03F081F800F0EEF803B4FFF7F2FFDA
:1002500003BC00F0F5F80000094880470948004752
:10026000FEE7FEE7FEE7FEE7FEE7FEE7FEE7FEE766
:10027000FEE7FEE704480549054A064B70470000C3
:10028000CD2B00088D010008F0010020F0070020B0
:10029000F0030020F003002053EA020C00F0698014
:1002A0002DE9F04B4FF00006002B1FBFB3FA83F58A
:1002B00003FA05F424FA05F65E4012BF1643B2FABB
:1002C00082F502FA05F4C5F120051EBF22FA05FCED
:1002D00044EA0C04203556EA044C4FEA144418BF93
:1002E000641C4FF000084FF00009904271EB030CC2
:1002F00039D3002919BFB1FA81F701FA07F6B0FA2C
:1003000080F700FA07F6C7F120071EBF20FA07FCA6
:1003100046EA0C062037B6FBF4FCA7EB0507103FB6
:1003200007F01F0BCBF120062CFA06F60CFA0BFB9C
:1003300044BFB3460026202FA4BF5E464FF0000BFB
:100340005BEA060C08BF4FF0010B19EB0B0948EBF9
:100350000608ABFB027C06FB02CC0BFB03CCC01BEC
:1003600071EB0C01C1E70B46024641464846BDE829
:10037000F08B13B5084318BF4FF0FF300146AFF3C1
:100380000080BDE81C4070474FF0000200B51346E6
:1003900094469646203922BFA0E80C50A0E80C50A5
:1003A000B1F12001BFF4F7AF090728BFA0E80C5056
:1003B00048BF0CC05DF804EB890028BF40F8042B4F
:1003C00008BF704748BF20F8022B11F0804F18BFBC
:1003D00000F8012B7047704770477047754600F072
:1003E0002BF8AE4605006946534620F007008546C7
:1003F00018B020B5FFF73EFFBDE820404FF00006E3
:100400004FF000074FF000084FF0000BAC46ACE88F
:10041000C009ACE8C009ACE8C009ACE8C00921F0EB
:1004200007018D46704710B50446AFF300802046A3
:10043000BDE81040FFF709BF0048704720000020CA
:1004400001491820ABBEFEE72600020070470000FD
:10045000FEE7000040F2D000C2F2000000F066B8F3
:1004600040F21810C2F2000000F060B870470000BF
:10047000082000F02DB90000EFF3108072B600BF25
:10048000FEE70000014690F82500022818D1086810
:10049000D1E910C3026822F00E020260026822F065
:1004A0000102026003F01C00012202FA00F0CCF805
:1004B000040081F825200020002281F824207047C4
:1004C0000420C8630120002281F824207047000026
:1004D00090F82510022925D180B50168D0F838E0C0
:1004E000D0E910C30A68BEF1000F22F00E020A60C4
:1004F0000A6822F001020A6003F01C014FF00102B9
:1005000002FA01F1CCF804104FF0000180F8252028
:1005100080F8241001D0F0470021BDE88040084653
:10052000704700BF0421C16301207047B0B5D0E916
:1005300010C30268DCF8001003F01C030424D2F896
:1005400000E09C400C4218BF1EF0040522D102249A
:100550009C400C4218BF1EF0020529D1D940090762
:1005600024D51EF0080108BFB0BD116821F00E01AE
:100570001160012101FA03F2CCF80420C16380F874
:100580002510416B002280F8242079B1BDE8B040ED
:10059000084700BF1168890603D4116821F00401DF
:1005A0001160CCF80440016B0029EFD1B0BD00BF51
:1005B0001168890606D4116821F00A011160012131
:1005C00080F82510CCF80440C16A0022002980F888
:1005D0002420DBD1EAE70000002804BF0120704797
:1005E0002DE9F04740F2000CC4F2020C02684FF60D
:1005F000F8310CF5816ECBF6FD71724538BF01F50F
:1006000080614CF6CD431144CCF6CC43A1FB0313DF
:100610006FF003010CF5806701EA93084FF00203C5
:10062000D0E9024AD0F810903CBF0027C4F202077C
:10063000C0E9107880F82530136847F6F077BB439F
:10064000D0E9057143EA0A0343EA0903D0E90765E3
:100650003B431943314329432143B4F5804F116093
:1006600015D04FF4956408F01C010F23724538BF74
:10067000A8245CF804208B409A434CF8042042687C
:100680005CF8043002FA01F119434CF8041000211F
:100690000122C16380F8252080F82410BDE8F047CE
:1006A00008467047B0B5044600F0FCF8054640F235
:1006B0000800C2F200000078611C18BF044400BFAB
:1006C00000F0F0F8401BA042FAD3B0BD7047000024
:1006D00040F21441C4F201010A68024214BF0860EA
:1006E0007047FFF7F3BF00002DE9F04F82B00D68AF
:1006F000002D00F0C58000F13847860546EA9727AF
:1007000041F20006C4F60006072240F2004EB04255
:1007100008BF0422C4F2010E042F38BF3A464FF03E
:10072000000C012400270026009209E00D68013624
:1007300035FA06F207F102070CF1040C00F0A08074
:1007400004FA06FB15EA0B08F0D0D1F804A0032345
:100750000AF003056A1EBB40012A6FEA03090FD89D
:100760008268CB6802EA0902BB401A438260426891
:10077000CAF3001322EA0B02B3401A43426003E0BB
:10078000032D01D103251FE0C2688B6802EA09022C
:10079000BB401A43022DC26016D16FF0030202EA79
:1007A000560202440CF01C050F23D2F820A003FAD5
:1007B00005FB0B692AEA0B0AAB4043EA0A03136202
:1007C000D1F804A00AF00305026805FA07F302EA6B
:1007D00009021A431AF4403F0260A7D041F26003B5
:1007E000C4F202031A684FF6084A42F001021A6086
:1007F0001A68CFF6FF7A02F001020192019A26F000
:100800000302724452F80A900CF00C050F23009C6E
:10081000AB4029EA030304FA05F52B4342F80A30FA
:10082000DEF808204B6842EA080540F20C49DC0279
:1008300058BF22EA0805CEF80850C4F20109D9F8D9
:1008400000209D0242EA080458BF22EA0804C9F8C1
:100850000040DEF804209D0342EA080458BF22EA63
:100860000804CEF80440DEF80020DB0342EA080466
:1008700058BF22EA0804CEF80040012456E700BF22
:1008800002B000F000B830BCBDE8C08F006908407D
:1008900018BF0120704700001823002A08BF282332
:1008A000C150704740F2E810C2F200000068704783
:1008B00040F2080040F2E811C2F20000C2F200016A
:1008C00000780A68104408607047000080B5032073
:1008D00000F08AF80F2000F009F800281CBF012062
:1008E00080BD00F029F8002080BD000070B540F206
:1008F0000806C2F200063178E1B1044640F2100069
:10090000C2F200004FF47A720068B2FBF1F1B0FB62
:10091000F1F000F0DFFF0F2C4FF0010508D838B9D7
:100920004FF0FF3021460022002500F031F87460BE
:10093000284670BD012070BD82B041F25800C4F25B
:100940000200816841F001018160816801F00101CC
:1009500001910199016841F080510160006800F047
:1009600080500090009802B070470000002848BFF7
:10097000704700F01F01012202FA01F11C2202EA75
:10098000D0004EF20012CEF20002815070470000FB
:1009900010B54EF60C5CCEF2000CDCF80030C3F360
:1009A000022E8EF00704042C28BF0424BEF103039A
:1009B0004FF0FF3E0EFA04F438BF0023A1439940E4
:1009C0000EFA03F39A43114300F00F0200F1604363
:1009D0000901043A03F564436244002848BF02F168
:1009E0000C03197010BD00004EF60C51CEF2000140
:1009F0000A684FF6FF031A4060F30A2242F0806053
:100A000040F0FD700860704747F20001C4F2000139
:100A10000A68B0F5007F02F4C06031D1B0F5007F04
:100A20002CD00868012262F34A20086040F21000CE
:100A3000C2F200000068322250434DF68362C4F2D5
:100A40001B32A0FB0202900C4A69520511D5421CD0
:100A50000FD04A6952050CD558B14A69520508D5DC
:100A6000012806D04A69520503D50228A0F10400E6
:100A7000EAD14869400544BF032070470020704711
:100A8000B0F5806FFAD00868022262F34A2008604D
:100A90000020704747F20000C4F20000006800F434
:100AA000C06070472DE9F04381B00446407841F2C0
:100AB00088070007C4F202071ED5606C80B1B0F54C
:100AC000400F14D0B0F5000F40F0288157F87C0C8F
:100AD00040F4803047F87C0C4FF4000007E000BF82
:100AE000201D002101F0C8FF814638B9606C3968CB
:100AF00021F44001084338604FF00009A0788007D6
:100B000052D557F8300C5FEAC0080BD457F8300CB8
:100B100040F0805047F8300C57F8300C00F080500F
:100B20000090009847F20005C4F20005286840F4E0
:100B300080702860FFF7B6FE064600BF2868C00533
:100B400008D4FFF7AFFE801B0228F7D94FF0030946
:100B500021E000BFB9F1000F1DD1B86810F440705A
:100B600011D0A16D88420BD0B868B96820F44070EC
:100B700041F48031B960B96821F48031B960B8605E
:100B8000C00740F0D380B868A16D20F440700843DE
:100B90004FF00009B860B8F1000F05D457F8300CD9
:100BA00020F0805047F8300C2168C80712D1880720
:100BB00018D448071ED4880624D488052AD44805AA
:100BC00030D4480636D408063CD4C80542D40803BD
:100BD00048D459E03868226A20F003001043386096
:100BE0008807E6D53868626A20F00C001043386048
:100BF0004807E0D53868A26A20F03000104338601A
:100C00008806DAD53868E26A20F44060104338601C
:100C10008805D4D53868E26B20F440201043386052
:100C20004805CED53868226C20F440101043386057
:100C30004806C8D53868226B20F44050104338600D
:100C40000806C2D53868626B20F440401043386013
:100C5000C805BCD53868A26B20F44030104338601A
:100C6000080311D53A68A06C22F040620243B0F14B
:100C7000806F3A601ED0B0F1006F05D157F87C0C40
:100C800040F4801047F87C0C480327D53A68E06CA4
:100C900022F040620243B0F1806F3A6016D0B0F1AA
:100CA000006F1BD157F87C0C40F4801047F87C0C87
:100CB00014E000BF201D012101F0DEFE21680028A4
:100CC00018BF81464803E1D408E000BF201D012180
:100CD00001F0D2FE2168002818BF8146480410D5D3
:100CE0003868226D20F040501043B2F1805F3860C8
:100CF00007D1201D022101F0BFFE2168002818BF86
:100D00008146080405D53868616D20F080400843AD
:100D10003860484601B0BDE8F08300BF4FF00109DC
:100D2000A07880073FF5EDAE3EE700BFFFF7BAFDC4
:100D3000064641F288354FF0030900BFB8688007C6
:100D40003FF521AFFFF7AEFD801BA842F6D922E7A1
:100D50002DE9F04381B000286BD042F20008C4F2C4
:100D600002080446D8F800000D4600F0070088424B
:100D70000CD2D8F8000020F007002843C8F8000083
:100D8000D8F8000000F00700A84252D1206841F2D4
:100D9000080910F00201C4F202090DD0A268D9F8C6
:100DA000003003F0F0039A4206D9D9F8003023F05E
:100DB000F0031A43C9F80020C2072DD169B1A16818
:100DC000D9F8002002F0F002914206D2D9F80020B2
:100DD00022F0F0021143C9F80010D8F8001001F019
:100DE0000701A9420CD9D8F8001021F007012943C6
:100DF000C8F80010D8F8001001F00701A94218D176
:100E000041071BD4000723D4D9F80000D9F80410F7
:100E100010F00C002CD131E0606800285ED0022870
:100E200000F07E80032840F0818059F8081C890179
:100E300058D4012001B0BDE8F08300BFD9F80010FC
:100E4000E26821F4E0611143C9F800100007DBD526
:100E5000D9F80000216920F4605040EAC100C9F8C7
:100E60000000D9F80000D9F8041010F00C0005D0EB
:100E70000C2829D101F00301012925D159F8081CBA
:100E8000090703D4D9F88C10090A02E059F8081CA4
:100E9000090943F6582201F00F01C0F6000252F88A
:100EA000211000280A4618BF00220C2871D1D9F859
:100EB000040000F00300022846D0032804BF41F2DA
:100EC0000021C0F27A0143E0042857D008285BD102
:100ED00041F20022C0F27A025BE000BF59F8081C20
:100EE0008907A6D5D9F8001021F003010843C9F8F5
:100EF0000000FFF7D7FC064641F28837D9F800001A
:100F0000616800F00C00B0EB810F15D0FFF7CAFC50
:100F1000801BB842F2D9032001B0BDE8F08300BFC6
:100F200059F8081C89037FF584AFDBE759F8081CE2
:100F300049057FF57EAFD5E7206800F00201002962
:100F40007FF43DAF49E700BF42F20041C0F2F40137
:100F5000D9F80400D9F80420C0F30210C2F3062225
:100F60005143D9F804200130B1FBF0F0C2F34161E4
:100F7000022202EB4101B0FBF1F20AE042F2004230
:100F8000C0F2F40205E000BF002200210C283FF46B
:100F90008EAFD9F8000043F64021C0F30310C0F62D
:100FA0000001085C00F01F0022FA00F140F20C0082
:100FB000C2F2000040F210020068C2F200021160AA
:100FC00001B0BDE8F043FFF791BC000040F2100013
:100FD00041F20801C2F20000C4F20201006809688F
:100FE00043F65022C1F30221C0F60002515C01F029
:100FF0001F01C8407047000040F2100041F2080194
:10100000C2F20000C4F202010068096843F65022EF
:10101000C1F3C221C0F60002515C01F01F01C840BB
:101020007047000041F20C01C4F2020151F8040CB7
:1010300010F00C02086805D00C2A29D100F003003A
:10104000012825D151F80C0C000703D4D1F88800F1
:10105000000A02E051F80C0C000943F6582300F096
:101060000F00C0F6000353F82030002A184618BFBE
:1010700000200C2A18BF7047086800F003000228FF
:1010800010D0032804BF41F20023C0F27A030DE020
:10109000042A1FD0082A23D141F20020C0F27A008E
:1010A000704700BF42F20043C0F2F40308680A68C8
:1010B000C0F30210C2F30622096801305A43B2FBA2
:1010C000F0F0C1F34161022202EB4101B0FBF1F00B
:1010D000704700BF42F20040C0F2F400704700BF0A
:1010E00000200023C5E70000002804BF012070474E
:1010F0002DE9F04383B041F200060446C4F2020633
:10110000B068F168227800F00C09D00601F00308FD
:101110001ED42078C00700F08880B9F1080F00F0D5
:101120007D80B9F10C0F08BFB8F1030F76D060686D
:10113000B0F5803F07D0B0F5A02F40F05582306861
:1011400040F480203060306840F48030306056E2F7
:10115000B9F1000F1CD0B9F10C0F08BFB8F1010FA5
:1011600016D0A1693068002900F0A08140F001008C
:101170003060FFF797FB05463068800700F1A881D3
:10118000FFF790FB401B02284FF00300F4D95CE30B
:101190003068800703D5A069002800F0EF82256A37
:1011A0003068000700F14A81D6F89400000900F089
:1011B000F000854200F248813068B9F1000F40F03C
:1011C00008003060306820F0F00040EA0500306030
:1011D0007068E16920F47F4040EA0120706040F0CF
:1011E000BA82B06DC00000F15782B06D40F08050FF
:1011F000B065B06D00F0805002900298FFF74AFC95
:10120000B16D21F08051B165B0F5007F00F04A82E8
:10121000802D40F2878203208FE200BF3068800378
:1012200003D56068002800F0A982207880072DD5BA
:10123000B9F1040F1CD0B9F10C0F08BFB8F1020FBF
:1012400016D0E1683068002900F0E88140F4807031
:101250003060FFF727FB0546306840050FD4FFF7E5
:1012600021FB401B02284FF00300F5D9EDE200BF3F
:101270003068400503D5E068002800F07F82706880
:10128000216920F0F85040EA016070602078000782
:1012900060D42078400779D42078800600F1B280AD
:1012A000A06A002800F01283022840F02381F06831
:1012B000E16A00F003028A4240F03481226B6FF051
:1012C0000F0300F0700103EB0212914240F02A81FB
:1012D000616B00F4FE42B2EB012F40F02381A16B61
:1012E00000F07842B2EBC16F40F01C81E26B00234A
:1012F000CFF6E07303EA025200F4C001A2F5001237
:10130000914240F00F81216C4FF07E4202EA016170
:1013100000F0C06001F17E41884240F003813068F6
:10132000800100F1D382306840F080703060F06856
:1013300040F08070F060FFF7B5FA04463068800135
:1013400000F1C482FFF7AEFA001B02284FF0030041
:10135000F4D97AE26169D6F89400002900F090800F
:1013600040F00100C6F89400FFF79CFA054600BF64
:10137000D6F8940080078CD4FFF794FA401B02281B
:10138000F6D9032003B0BDE8F08300BFB06D5FEA7B
:10139000C00808D4B06D40F08050B065B06D00F06A
:1013A00080500090009847F20007C4F200073868A8
:1013B000C00513D4386840F480703860FFF772FAC3
:1013C000054600BF3868C00508D4FFF76BFA401B1C
:1013D00002284FF00300F5D937E200BFA0680128CA
:1013E00008D0052840F0DE80D6F8900040F00400D8
:1013F000C6F89000D6F8900040F00100C6F89000C2
:10140000DEE000BF616AD6F89800002900F0B480E1
:1014100040F00100C6F89800FFF744FA054600BF07
:10142000D6F8980080073FF53BAFFFF73BFA401B2B
:1014300002284FF00300F3D907E200BF306800F044
:10144000F00085427FF6B8AEB06DC00000F1868036
:10145000B06D40F08050B065B06D00F080500190EC
:101460000198FFF717FBB16D21F08051B165B0F520
:10147000007F79D0802D40F2E3800320EBE000BFB5
:1014800020F00100C6F89400FFF70CFA054600BFF3
:10149000D6F8940080077FF5FCAEFFF703FA401BF7
:1014A00002284FF00300F3D9CFE100BF20F0010084
:1014B0003060FFF7F7F90546306880077FF529AE01
:1014C000FFF7F0F9401B02284FF00300F4D9BCE10C
:1014D000306840F0080030603068D4E9071220F02E
:1014E000F00010433060706820F47F4040EA012033
:1014F00070600EE6B9F10C0F00F04081306820F00A
:1015000080703060FFF7CEF9044600BF306880017C
:1015100040F1EC80FFF7C6F9001B02284FF00300F2
:10152000F4D992E1B9F10C0F00F028813068400144
:1015300000F12481306820F080703060FFF7B2F94C
:10154000054600BF3068800140F18281FFF7AAF9AB
:10155000401B02284FF00300F4D976E1FFF79AFA16
:10156000B0F5007F7FF486AF812D73D30120A02DCD
:1015700088BF02206FE000BF20F00100C6F898008D
:10158000FFF790F9054600BFD6F8980080077FF571
:1015900087AEFFF787F9401B02284FF00300F3D90D
:1015A00053E100BFD6F89010002821F00101C6F8E1
:1015B0009010D6F8901021F00401C6F8901079D060
:1015C000FFF770F9054641F2883700BFD6F8900062
:1015D000800700F18180FFF765F9401BB842F5D91B
:1015E000032003B0BDE8F0833168002821F4803186
:1015F0003160316821F48021316000F08380FFF791
:1016000051F90546306880033FF50FAEFFF74AF900
:10161000401B64284FF00300F4D916E120F48070D9
:101620003060FFF73FF90546306840057FF52EAE84
:10163000FFF738F9401B02284FF00300F4D904E10A
:10164000A5F17000B0FA80F04009802D08BF02209B
:1016500001E000BF002042F20001C4F202010A686A
:1016600022F0070202440A60096801F00701814282
:1016700040F08480306840F0080030603068D4E981
:10168000071220F0F00010433060706820F47F40B3
:1016900040EA012070605EE0FFF7FCF9B0F5007FE2
:1016A0007FF4B6AD812D47D30120A02D88BF022045
:1016B00043E000BFFFF7F6F8054641F2883700BF68
:1016C000D6F89000800707D5FFF7ECF8401BB8422A
:1016D0004FF00300F4D9B8E0B8F1000F3FF5DCADEE
:1016E000B06D20F08050B065D6E500BFF0684FF6D1
:1016F000FC71CFF6EE610840F060002003B0BDE859
:10170000F08300BFFFF7CEF8054600BF30688003C6
:101710007FF58BADFFF7C6F8401B64284FF0030040
:10172000F4D992E0A5F17000B0FA80F04009802D64
:1017300008BF022001E000BF002042F20001C4F215
:1017400002010A6822F0070202440A60096801F0F7
:101750000701814212D1B068F16810F00C0005D089
:101760000C282BD101F00301012927D13168090789
:1017700008D4D6F89410090A06E000BF012003B08F
:10178000BDE8F0833168090943F6582201F00F01E2
:10179000C0F6000252F8211000280A4618BF0022A5
:1017A0000C2837D1F06800F00300022810D003287D
:1017B00004BF41F20021C0F27A010DE004281FD0DD
:1017C000082823D141F20022C0F27A0222E000BFB1
:1017D00042F20041C0F2F401F068F268C0F3021076
:1017E000C2F306225143F2680130B1FBF0F0C2F3BC
:1017F0004161022202EB4101B0FBF1F20AE000BFBD
:1018000042F20042C0F2F40204E000BF00220021D4
:101810000C28C7D0B06843F64021C0F30310C0F6CF
:101820000001085C00F01F0022FA00F140F20C00F9
:10183000C2F2000040F210020068C2F20002116021
:10184000FFF754F800283FF464AC03B0BDE8F08320
:10185000F06848F28C01C0F29D1104F12C0700EAF7
:10186000010C8ECF6FF00F00D4E90F5400EB021083
:101870000022CFF6E07241EA0C0102EA0552084369
:10188000A2F500124FF07E4540EA032005EA046508
:10189000104305F17E4540EAC7602843F060306898
:1018A00040F080703060F06840F08070F060FEF7CB
:1018B000F9FF04463068800108D4FEF7F3FF001BEF
:1018C00002284FF00300F5D9BFE700BF002003B0A6
:1018D000BDE8F083411E0020B0EB116F1CBF01205A
:1018E00070474EF21002CEF2000251604EF62351C4
:1018F000CEF20001F0230B70072190601160704759
:1019000070470000704700007047000090F83C20CE
:10191000012A4FF002022DD010B580F83D20026858
:1019200042F6004C5368D2F808E0C4F2010C62455C
:1019300003D14C6823F4700323430C6823F0700335
:101940002343B2F1804F536007D044F20003C4F246
:1019500001039A4201D0624504D189682EF08003C8
:10196000194391600121002280F83D1080F83C204D
:10197000BDE810401046704790F83D10012929D16C
:10198000022180F83D100168C868B1F1804F40F035
:101990000100C8600BD044F20000C4F20100814293
:1019A00005D042F60040C4F2010081420CD18868A3
:1019B0000722C0F201020240062A4FF000000AD0BE
:1019C000B2F5803F08BF7047086840F0010008602A
:1019D000002070470120704770470000F0B581B0CB
:1019E00004460068C5680669B10717D515F00201FD
:1019F00014D06FF002010161012121778069800715
:101A000004D02046FFF7E8FF06E000BF204600F0C4
:101A1000C1F8204600F03AFB00202077700719D566
:101A200015F0040016D020686FF004010161022156
:101A30002177806910F4407F04D02046FFF7CCFF67
:101A400006E000BF204600F0A5F8204600F01EFB8F
:101A500000202077300717D515F0080014D0206833
:101A60006FF00801016104212177C069800703D06C
:101A70002046FFF7B1FF05E0204600F08BF8204636
:101A800000F004FB00202077F00619D515F01000B7
:101A900016D020686FF01001016108212177C0691C
:101AA00010F4407F04D02046FFF796FF06E000BF09
:101AB000204600F06FF8204600F0E8FA002020777A
:101AC000F00718BF15F0010004D1300605F08007BB
:101AD0000BD412E020686FF001010161204600F094
:101AE00005FC300605F0800707D537B120686FF098
:101AF000800101612046FFF705FFF00507D537B1EA
:101B000020686FF4807101612046FFF7F9FE7006CE
:101B100009D515F0400006D020686FF04001016142
:101B2000204600F0F5FBB0060CD515F0200009D0DA
:101B300021686FF0200220460A6101B0BDE8F04044
:101B4000FFF7E2BE01B0F0BD0068B0F1804F18BFF2
:101B5000704780B586B041F24C00C4F202000168C3
:101B600041F0010101600068022100F001000190D4
:101B700001980120029100210190CDE90311059007
:101B800001A94FF09040FEF7AFFD06B0BDE88040E0
:101B90007047000040F28001C2F200010431884227
:101BA00018BF704740F60000C4F600004FF4005123
:101BB0000122FEF771BE000090F83C30012B04BFFB
:101BC000022070474FEAB202052A61D82DE9F041A0
:101BD000DFE812F006006400B000FE003E017E0166
:101BE000036842F600461D6A1A6A25F0020522F0D3
:101BF00001021A621A46D3F804C052F818EF8F682F
:101C0000D1F80080C4F20106B34245EA07050BD0C3
:101C100044F20047C4F20107BB4205D044F200077A
:101C2000C4F20107BB4205D1CF6825F00C0527F0AF
:101C300004073D43B3420BD044F20046C4F2010610
:101C4000B34205D044F20006C4F20106B34206D105
:101C5000D1E905672CF44074264346EA070C4FF699
:101C60008C74CFF6FE740EEA040747EA0807C3F83F
:101C700004C09F614F6809695F631D629F6947F0F7
:101C800008079F619F6927F004079F6161E100BF1A
:101C90000121002280F83C2008467047036842F684
:101CA00000461F6A1A6A27F0200722F010021A6203
:101CB0001A465D6852F818CF8C68C4F20106B34228
:101CC00047EA041408D124F0C00ECC686FF0400736
:101CD00007EA041444EA0E04D1F800E0B3420BD042
:101CE00044F20046C4F20106B34205D044F20006B5
:101CF000C4F20106B34206D1D1E9056725F4406577
:101D00003E4345EA860548F6FF46CFF6FF660CEAF5
:101D1000060747EA0E275D609F614F6809699F6368
:101D20001C629F6947F400679F619F6927F4806781
:101D30009F610DE1036842F600461F6A1A6A27F4A4
:101D4000007722F480721A621A465D6852F81CCF3E
:101D50008C68C4F20106B34247EA042409D1CF6873
:101D600024F4406E3F0240F2FF4427EA040444EAB0
:101D70000E04D1F800E0B3420BD044F20046C4F2A6
:101D80000106B34205D044F20006C4F20106B34294
:101D900006D1D1E9056725F440553E4345EA0615CD
:101DA0004FF68C76CFF6FE760CEA060747EA0E076A
:101DB0005D60DF614F680969DF631C62DF6947F0BE
:101DC0000807DF61DF6927F00407DF61C1E000BFBA
:101DD000036842F60047D3F820C01A6AC4F201072C
:101DE00022F480521A621A465D6852F81C4FD1F8EC
:101DF00000E08E68BB420BD044F20047C4F20107FA
:101E0000BB4205D044F20007C4F20107BB4204D133
:101E10004F6925F4804545EA87152CF4005747EAB9
:101E2000063748F6FF46CFF6FF66264046EA0E26FE
:101E30005D60DE614E6809691E641F62DF6947F4F8
:101E40000067DF61DF6927F48067DF6180E000BF42
:101E5000036842F60047D3F820C01A6AC4F20107AB
:101E600022F480321A621A465D6852F8544FD1F853
:101E700000E08E68BB420BD044F20047C4F2010779
:101E8000BB4205D044F20007C4F20107BB4204D1B3
:101E90004F6925F4803545EA07252CF4003747EAD9
:101EA00006474FF68C76CFF6FE760336264046EA96
:101EB0000E065D605E654E6809699E651F625F6D16
:101EC00047F008075F655F6D27F004075F6540E036
:101ED000036842F60047D3F820C01A6AC4F201072B
:101EE00022F480121A621A465D6852F8544FD1F8F3
:101EF00000E08E68BB420BD044F20047C4F20107F9
:101F0000BB4205D044F20007C4F20107BB4204D132
:101F10004F6925F4802545EA87252CF4001747EA08
:101F2000065748F6FF46CFF6FF6606F54076264090
:101F300046EA0E265D605E654E680969DE651F62D1
:101F40005F6D47F400675F655F6D27F480675F65CD
:101F500009021368194311600021BDE8F041002215
:101F600080F83C2008467047002804BF01207047D5
:101F7000B0B5044690F83D0028B9002084F83C0034
:101F8000204600F063F8022084F83D00206842F605
:101F9000004E0268C4F2010E704502D0B0F1804FCD
:101FA00003D1A36822F070021A4343F6FF73C4F210
:101FB000010344F2004C9842C4F2010C06DCB0F17B
:101FC000804F0BD0704509D00CE000BF604505D0B4
:101FD00044F20003C4F20103984203D1236922F4BE
:101FE00040721A43A16922F080026368E5681143D8
:101FF00070450160C562836218BF60451ED161698A
:10200000016301214161002084F8481084F83E10EA
:1020100084F83F1084F8401084F8411084F842108E
:1020200084F8431084F8441084F8451084F846106E
:1020300084F8471084F83D10B0BD00BF44F20001A1
:10204000C4F201018842DAD0DBE700000068B0F199
:10205000804F18BF704780B582B041F25800C4F27B
:1020600002000168002241F00101016000680021C6
:1020700000F00100019001981C20FEF789FC1C2053
:1020800002B0BDE88040FEF771BC00007047000060
:1020900071B10A1F8B0743EA9202032A18D8DFE8BE
:1020A00002F0031B1F2300BF00F13F031EE000BF2F
:1020B00090F83E20012A1CBF01207047022280F8C0
:1020C0003E204FEAB103032B4FF0010241D84CE010
:1020D00000F143030AE000BF00F1400306E000BF47
:1020E00000F1410302E000BF00F142031B78012B25
:1020F0001CBF01207047032A0ED8DFE802F0031747
:10210000212D00BF022280F83F204FEAB103032BAC
:102110004FF001021DD828E0022280F843204FEA48
:10212000B103032B4FF0010213D81EE0022280F806
:1021300040204FEAB103032B4FF0010209D814E00D
:10214000022280F841204FEAB103032B4FF0010235
:102150000BD91046704700BF022280F842204FEA98
:10216000B103032B4FF00102F3D843F6882C00682B
:10217000C0F6000C5CF823C0C36801F01F0143EAFD
:102180000C03C360036A02FA01F123EA010202624E
:10219000026A114343F6FF72C4F2010290420162E7
:1021A0000ADCB0F1804F23D042F60041C4F20101B5
:1021B00088420DD028E000BF44F20041C4F2010182
:1021C000884205D044F20001C4F2010188421BD1CB
:1021D000416C44F20002C4F2010241F40041904219
:1021E000416405D042F60041C4F2010188420BD19E
:1021F00081680722C0F20102114006294FF0000257
:10220000A7D0B1F5803FA4D00168002241F00101C0
:1022100001601046704700004FEAB10CBCF1030F9B
:102220004FF0010260D810B543F6982E0368C0F64F
:10223000000E5EF82CE0DC6801F01F0104EA0E04D9
:10224000DC601C6A02FA01F124EA0101196242F61B
:102250000042196AC4F20102934219620BD044F29F
:102260000041C4F201018B4205D044F20001C4F2E6
:1022700001018B420DD1196A41F21112114208D1AC
:10228000196A40F24442114203D1596C21F40041D1
:102290005964196A41F21112114208D1196A40F2C7
:1022A0004442114203D1196821F001011960BCF1C7
:1022B000030FBDE8104007D8DFE80CF0020A0E1249
:1022C000012180F83E100EE0012180F843100AE061
:1022D000012180F83F1006E0012180F8401002E063
:1022E000012180F8411000221046704740F2800121
:1022F000C2F200010431884218BF704740F6000066
:10230000C4F600004FF400510122FEF7C5BA0000E8
:1023100070470000704700007047000070470000E1
:1023200070B501680446C8690E6840F62F028B68D4
:102330000240202A06F0200E08D1BEF1000F05D081
:10234000A16E49B32046BDE87040084740F60F0231
:10235000104209D040F22012C0F2004203F0010CFA
:10236000324012EB0C0229D1226EC50616D5012A85
:1023700014D116F0100211D01020086288684006AF
:1023800026D4B4F85800B4F85A10B4F85A20002AE9
:1023900018BF884240F0308270BD00BFC20240F1D9
:1023A000D18013F4800200F0CD804FF480122046DB
:1023B0000A62BDE87040FFF7AFBF00BFC20718BF99
:1023C00016F4807240F0CA80820700F1D180DAE012
:1023D000606F006841688AB2002ADDD0B4F85830D6
:1023E0009A42D9D2A4F85A100068800600F19C8065
:1023F000206850E8000F216820F4807041E8000256
:10240000DAB1206850E8000F216820F4807041E8BC
:10241000000292B1206850E8000F216820F480701B
:1024200041E800024AB1206850E8000F216820F41A
:10243000807041E80002002ADAD1206850E8020FDB
:10244000216820F0010041E80202DAB1206850E87A
:10245000020F216820F0010041E8020292B12068D9
:1024600050E8020F216820F0010041E802024AB161
:10247000206850E8020F216820F0010041E80202C4
:10248000002ADAD1206850E8020F216820F04000CD
:1024900041E80202DAB1206850E8020F216820F01A
:1024A000400041E8020292B1206850E8020F216822
:1024B00020F0400041E802024AB1206850E8020FD3
:1024C000216820F0400041E80202002ADAD12020F1
:1024D000C4F8800000202066206850E8000F2168C2
:1024E00020F0100041E80002DAB1206850E8000F47
:1024F000216820F0100041E8000292B1206850E805
:10250000000F216820F0100041E800024AB1206865
:1025100050E8000F216820F0100041E80002002A76
:10252000DAD1606FFDF7AEFF02206066B4F85800A4
:10253000B4F85A10401A81B22046BDE87040FFF747
:10254000E9BE00BF010640F11B8116F0800100F0DA
:102550001781E16E00297FF4F5AE1DE701220A62C2
:10256000D4F8842042F00102C4F8842082070AD5FE
:10257000BCF1000F07D002220A62D4F8842042F096
:102580000402C4F8842042070AD5BCF1000F07D02A
:1025900004220A62D4F8842042F00202C4F88420A3
:1025A00002070AD55CEA0E0207D008220A62D4F8B4
:1025B000842042F00802C4F8842002050BD516F0EE
:1025C000806208D04FF400620A62D4F8842042F09E
:1025D0002002C4F88420D4F88420002A3FF4DCAE22
:1025E000800607D5BEF1000F04D0A26E12B12046BE
:1025F00090472168D4F88400896800F0280001F031
:102600004001401806D12046FFF788FE0020C4F89C
:10261000840070BD206850E8000F216820F490709D
:1026200041E80002BAB3206850E8000F216820F4A6
:10263000907041E8000272B3206850E8000F2168F2
:1026400020F4907041E800022AB3206850E8000F9F
:10265000216820F4907041E80002002ADAD11AE0E3
:10266000206850E8020F216820F0010041E80202D2
:10267000DAB1206850E8020F216820F0010041E83B
:10268000020292B1206850E8020F216820F0010098
:1026900041E802024AB1206850E8020F216820F0A8
:1026A000010041E80202002ADAD1206E012824D17B
:1026B000206850E8000F216820F0100041E8000277
:1026C000DAB1206850E8000F216820F0100041E8DE
:1026D000000292B1206850E8000F216820F010003D
:1026E00041E800024AB1206850E8000F216820F05C
:1026F000100041E80002002ADAD12020C4F880004E
:10270000002020662168A066886840066ED500BF5C
:10271000206850E8020F216820F0400041E80202E2
:10272000DAB1206850E8020F216820F0400041E84B
:10273000020292B1206850E8020F216820F04000A8
:1027400041E802024AB1206850E8020F216820F0F7
:10275000400041E80202002ADAD1606F002845D02B
:1027600042F64161C0F600018163FDF7B1FE002829
:102770003FF412AE606F816BBDE87040084700BF48
:1027800040067FF509AE16F0400008BF70BD00BFDF
:10279000206850E8000F216820F0400041E8000266
:1027A000DAB1206850E8000F216820F0400041E8CD
:1027B000000292B1206850E8000F216820F040002C
:1027C00041E800024AB1206850E8000F216820F07B
:1027D000400041E80002002ADAD120200021E06711
:1027E0002046E166BDE8704000F03CB92046BDE8F7
:1027F0007040FFF793BD00BF401A00BF216851E849
:10280000001F226821F4907142E80013BBB32168D5
:1028100051E8001F226821F4907142E8001373B35D
:10282000216851E8001F226821F4907142E80013EA
:102830002BB3216851E8001F226821F4907142E80F
:102840000013002BDAD11AE0216851E8021F226838
:1028500021F0010142E80213DBB1216851E8021FB7
:10286000226821F0010142E8021393B1216851E886
:10287000021F226821F0010142E802134BB12168D6
:1028800051E8021F226821F0010142E80213002BE7
:10289000DAD12021C4F8801000212166A16600BF92
:1028A000216851E8001F226821F0100142E800135E
:1028B000DBB1216851E8001F226821F0100142E8D5
:1028C000001393B1216851E8001F226821F0100124
:1028D00042E800134BB1216851E8001F226821F043
:1028E000100142E80013002BDAD1022281B2204607
:1028F0006266BDE87040FFF70DBD000010B5C0B1C5
:102900000446C06F28B9002084F87800204600F003
:1029100025F82420E0672068616A026822F001023D
:10292000026011B1204600F061F9204600F090FAF3
:1029300010B1012010BD00BF2168486820F490400C
:102940004860886820F02A008860086840F001022A
:1029500020460A60BDE8104000F0BEB92DE9F04302
:102960009DB0044601A804305821FDF70DFD2068F4
:1029700044F20041C4F20001884203D01DB0BDE81A
:10298000F08300BF4FF0020801A8CDF80480FEF7E5
:1029900089F8002818BFFDF76FFD41F25800C4F216
:1029A0000200016841F24C0641F400310160006808
:1029B000C4F2020600F4003018901898306800271E
:1029C00040F001003060306818A900F00100189054
:1029D00018980C20CDE9180803201B9007201C90A4
:1029E0004FF090401A97FDF77FFE40F2D005A6F514
:1029F0007E60C2F200054FF08009C5E90008284654
:102A0000C5E90277C5E90497C5E906772F62FDF7A6
:102A1000E3FD002818BFFDF72FFD6567AC6240F2AB
:102A20001815A6F6CC70C2F200050221102285E826
:102A300087022846C5E90577C5E90777FDF7CCFD8C
:102A4000002818BFFDF718FD262000210022256769
:102A5000AC62FDF79DFF2620FDF788FF1DB0BDE8A5
:102A6000F083000070470000FEE70000FEE7000072
:102A7000FEE7000070470000F0B581B041F20007AA
:102A8000C4F20207FA680D469107044614D0F868AC
:102A9000216800F0030088424FF0010040F08F8071
:102AA000002900F08C80F8686168C0F302100130E2
:102AB00088420BD120E000BF206803280AD00228FA
:102AC0003CD0012802D1396889070AD4012001B01D
:102AD000F0BD00BF396889035CBF39685FEA4131E6
:102AE000F4D5F96862686FF00F0321F0730103EB0E
:102AF000021211430843F860386820F080603860A3
:102B0000FDF7D0FE064600BF3868000106D5FDF788
:102B1000C9FE801B0228F7D948E000BF012D11D063
:102B200015BB386948F2FF01C0F2FF71D4E90223F6
:102B3000084040EA022040EAC36026E039684905BF
:102B4000C4D5CEE748F2FF013869CFF6FF112269FC
:102B5000002301F1B461CFF6E0730840A16803EAF5
:102B60000252A2F500120DE0386948F2FF016269D5
:102B7000CFF6FF114FF07E430840A16803EA0262DE
:102B800002F17E4240EA012010433861386840F08B
:102B900080603860FDF786FE054600BF386800019A
:102BA00008D4FDF77FFE401B0228F7D9032001B0AF
:102BB000F0BD00BFA069396908433861002001B049
:102BC000F0BD000070470000FDF772BE4EF6885061
:102BD000CEF20000016841F470010160704700000E
:102BE00040F28400C2F20000FEF7F8BE416A0A0714
:102BF0000ED4CA0717D18A0720D44A0729D4CA0697
:102C000032D48A063BD480B54A0644D458E000BF8B
:102C10000268D0F834C0536823F4004343EA0C033D
:102C20005360CA07E7D00268D0F828C0536823F47D
:102C3000003343EA0C0353608A07DED50268D0F8FC
:102C40002CC0536823F4803343EA0C0353604A07D3
:102C5000D5D50268D0F830C0536823F4802343EA06
:102C60000C035360CA06CCD50268D0F838C093680C
:102C700023F4805343EA0C0393608A06C3D50268A9
:102C8000D0F83CC0936823F4005343EA0C039360EC
:102C900080B54A0614D50268D0F840C05368BCF528
:102CA000801F23F4801343EA0C03536008D1D2F849
:102CB00004C0D0F844E02CF4C00343EA0E03536090
:102CC000090658BF80BD0168806C4A6822F4002262
:102CD0001043486080BD0000B0B582B004460020BB
:102CE000C4F88400FDF7DEFD216805460A68120776
:102CF00035D56FF07E4C20464FF4001100222B4654
:102D0000CDF800C000F0B2F940B300BF206850E831
:102D1000000F216820F0800041E80002DAB120684D
:102D200050E8000F216820F0800041E8000292B1D5
:102D3000206850E8000F216820F0800041E8000280
:102D40004AB1206850E8000F216820F0800041E877
:102D50000002002ADAD12020E0675FE021680868DD
:102D6000400761D56FF07E4C20464FF48001002271
:102D70002B46CDF800C000F079F9002854D000BFF0
:102D8000206850E8000F216820F4907041E80002AC
:102D9000E2B1206850E8000F216820F4907041E80B
:102DA00000029AB1206850E8000F216820F490706A
:102DB00041E8000252B1206850E8000F216820F479
:102DC000907041E80002002ADAD100BF206850E884
:102DD000020F216820F0010041E80202DAB1206808
:102DE00050E8020F216820F0010041E8020292B190
:102DF000206850E8020F216820F0010041E802023B
:102E00004AB1206850E8020F216820F0010041E833
:102E10000202002ADAD12020C4F880000320002119
:102E200084F8781002B0B0BD2020E067C4F88000BC
:102E3000002020666066002184F8781002B0B0BDE2
:102E4000806A0021A0F85A10A0F85210FFF766BA65
:102E5000B0B5054605F108041ECC0068194341EAE7
:102E60000403D5F81CE0046846F6F311CEF6FF71B2
:102E70002140194341EA0E010160416848F2000C0B
:102E800021F4405111434160AA69C4F2000C60452D
:102E90001CBF296A0A438168102321F43061114361
:102EA000816047F6FF71C4F20001884212DC44F2EF
:102EB0000041C4F2000188421CD044F60001C4F273
:102EC000000188422CD141F28801C4F20201096854
:102ED0000B091DE0604515D043F60001C4F2010165
:102EE00088421DD141F28801C4F202010B685BA245
:102EF00012E000BF41F28801C4F2020109688B08A8
:102F000006E000BF41F28801C4F2020109688B0AA1
:102F100043F6A822C0F6000203F0030152F8213064
:102F2000604542F20040C0F2F40015D0BEF5004FFB
:102F300022D1082B4FF0010100F28B80DFE803F073
:102F400006505A8954898989580000BFFEF73EF817
:102F500000284FD179E000BF082B4FF0010100F2AB
:102F60007880DFE803F0057621761B7676761F0001
:102F7000FEF72CF8C0B968E0082B4FF0010100F211
:102F80006880DFE803F0054B55664F6666665300C0
:102F9000FEF71CF800284BD157E000BFFEF742F8BF
:102FA00010B952E04FF400406A6802EB42018842D7
:102FB0004FF001014DD3130398424AD8010E00028D
:102FC00010EB520041F100010023FDF765F94FF6C7
:102FD0000052A0F54071C0F20F02914233D337E0A6
:102FE000FEF70AF830B930E0FEF71CF810B92CE013
:102FF0004FF4004069684A0802EB4000B0FBF1F072
:103000004FF6EF72A0F11001914221D84FF6F07106
:103010000140C0F34200084415E000BFFDF7ECFF9B
:1030200030B912E0FDF7FEFF10B90EE04FF400409A
:1030300069684FF6EF7200EB5100B0FBF1F0A0F1C0
:103040001001914204D82968C860002101E000BF46
:10305000012100220846AA66EA66B0BD0100000010
:103060000400000002000000080000002DE9F0410B
:10307000044600681546C2690E461140891BB1FA24
:1030800081F14909A94227D1DDF81880B8F1000F74
:1030900026D018F1010129D1C1693140891BB1FA4B
:1030A00081F14909A94217D1C1693140891BB1FA9F
:1030B00081F14909A9420FD1C1693140891BB1FA97
:1030C00081F14909A94207D1C1693140891BB1FA8F
:1030D00081F14909A942DFD00020BDE8F08100BF9D
:1030E000FDF7E0FB0320BDE8F08100BF1F4607E0CD
:1030F000C0693040801BB0FA80F04009A842EBD193
:10310000FDF7D0FBC01B404500F28E8020680168AF
:103110004907EDD5C169090700F18A80C169090530
:10312000E6D54FF400610162206850E8000F216885
:1031300020F4907041E80002BAB3206850E8000F14
:10314000216820F4907041E8000272B3206850E8D2
:10315000000F216820F4907041E800022AB3206833
:1031600050E8000F216820F4907041E80002002A26
:10317000DAD11AE0206850E8020F216820F001003F
:1031800041E80202DAB1206850E8020F216820F01D
:10319000010041E8020292B1206850E8020F216864
:1031A00020F0010041E802024AB1206850E8020F15
:1031B000216820F0010041E80202002ADAD1206EE5
:1031C000012824D1206850E8000F216820F0100069
:1031D00041E80002DAB1206850E8000F216820F0D1
:1031E000100041E8000292B1206850E8000F216809
:1031F00020F0100041E800024AB1206850E8000FBA
:10320000216820F0100041E80002002ADAD12020D5
:103210000021C4F880002166A166C4F88400032060
:1032200084F87810BDE8F0810320BDE8F08100BF8C
:1032300008210162206850E8000F216820F4907096
:1032400041E80002BAB3206850E8000F216820F47A
:10325000907041E8000272B3206850E8000F2168C6
:1032600020F4907041E800022AB3206850E8000F73
:10327000216820F4907041E80002002ADAD11AE0B7
:10328000206850E8020F216820F0010041E80202A6
:10329000DAB1206850E8020F216820F0010041E80F
:1032A000020292B1206850E8020F216820F001006C
:1032B00041E802024AB1206850E8020F216820F07C
:1032C000010041E80202002ADAD1206E012824D14F
:1032D000206850E8000F216820F0100041E800024B
:1032E000DAB1206850E8000F216820F0100041E8B2
:1032F000000292B1206850E8000F216820F0100011
:1033000041E800024AB1206850E8000F216820F02F
:10331000100041E80002002ADAD12020C4F8800021
:10332000002008212066A066C4F8841084F8780084
:103330000120BDE8F081000040F26010C2F2000000
:10334000FEF7EEBFFEE7000098B0FDF7BFFA07A852
:1033500004302421FDF718F84FF40070FDF754FBFA
:1033600020B1EFF3108072B6FEE700BF4FF480711A
:103370000A9110210B91012113910A21022014912D
:1033800007210790CDE91100CDE91510179007A886
:10339000FDF7AAFE20B1EFF3108072B6FEE700BF82
:1033A0000F20029003200390002402A80421CDE9FD
:1033B00004440694FDF7CCFC20B1EFF3108072B604
:1033C000FEE700BF41F24C070B94C4F202073868D5
:1033D00040F2004B40F0040038603868C4F6000B3F
:1033E00000F004000290029838680BF5806540F008
:1033F00001003860386842F6306100F00100029048
:1034000002983868002240F002003860386842F6BE
:10341000306600F00200029002982846FDF73CFA60
:103420004FF0904049F24211002249F2421AFDF752
:1034300033FA5846302100224FF03008FDF72CFABD
:10344000079607AE4FF0010928463146CDE90894AA
:103450000A94FDF749F94FF090403146CDE907A9AC
:10346000CDE90944FDF740F94FF488100C25CDE96A
:103470000809584631460795FDF736F95846314652
:10348000CDE90789CDE90944FDF72EF9092000218E
:103490000022FDF77DFA0920FDF768FA57F8040CC1
:1034A000002140F0010047F8040C57F8040C0022FA
:1034B00000F00100079007981020FDF769FA10202E
:1034C000FDF754FA112000210022FDF761FA1120C6
:1034D000FDF74CFA40F2601044F20041C2F20000E5
:1034E000C4F200014FF4165280E81600C0E903440C
:1034F000C0E90554C0E907444462FFF7FFF928B169
:10350000EFF3108072B600BFFEE700BF40F2800804
:10351000C2F200084FF080414046002440F8041FEA
:10352000032140F2CA620394CDE90C44CDE90A4478
:10353000C0E90114C0E903248461FEF715FD28B138
:10354000EFF3108072B600BFFEE700BF08F104057C
:1035500002A9284602940494FEF7D8F920B1EFF3AB
:10356000108072B6FEE700BF6020079040F2653021
:103570000890002009900B9007A928460022FEF72A
:103580001BFB28B1EFF3108072B600BFFEE700BF4F
:103590002846FEF7D9FA2846FEF7EEF940F2000772
:1035A0004FF0040AC2F200074FF00A090125012674
:1035B0000AE000BF02203870B978FA783B792046DB
:1035C000CDF800A000F0E4F858460421FDF75EF9BC
:1035D000012D054608BF002D16D058460821FDF7DD
:1035E00055F97C78012E064608BF002EE4D13878C4
:1035F000012801D1092CDDD9022815D1B978092972
:1036000012D80320D7E700BF38780138C0B20328AA
:10361000E3D822A151F8200001780131CAB2092A69
:1036200088BF00210170D8E7032805D1F97809295E
:1036300002D887F800A0BFE7042805D13979092905
:1036400002D80520387001E00528B5D3012088F89C
:10365000000000BF7878B978FA783B79CDF800900F
:1036600000F024F858460421FDF710F9012D08BF99
:10367000002805D098F8001005460029EAD109E095
:1036800040F60120C0F60A203860002087F8049038
:1036900088F800007C7805468EE700BF0100002016
:1036A0000200002003000020040000202DE9F04764
:1036B00082B0984691468A460A9C074604260A200C
:1036C0000A210A220A23009600F062F840F28000E4
:1036D000C2F20000061D30460021FEF7D9FC20464C
:1036E000FCF7E0FF04FB07F0FCF7DCFF30460021AD
:1036F000FEF792FD04EBC40504FB1750FCF7D2FF64
:103700002046FCF7CFFF30460021FEF7C1FC2046E3
:10371000FCF7C8FF04FB0AF0FCF7C4FF30460021A9
:10372000FEF77AFD04FB1A50FCF7BCFF2046FCF7BD
:10373000B9FF30460021FEF7ABFC2046FCF7B2FF94
:1037400004FB09F0FCF7AEFF30460021FEF764FDF4
:1037500004FB1950FCF7A6FF2046FCF7A3FF3046F8
:103760000021FEF795FC2046FCF79CFF04FB08F0C7
:10377000FCF798FF30460021FEF74EFD04FB185081
:10378000FCF790FF204602B0BDE8F047FCF78ABF87
:103790002DE9F04F81B0144689468046DDF828A017
:1037A00040F600054FF090404FF4885101221F462B
:1037B000C4F60005FDF770F8A5F5806630463021A7
:1037C0000122FDF769F828464FF4C6610122FDF792
:1037D00063F8BAF1000F1FD04FF0904048F2020199
:1037E0000022FDF759F828464FF400610022FDF74A
:1037F00053F84FF0904040210122FDF74DF840F280
:10380000140BBAF1040FC2F2000B09D31BF8070026
:1038100000F0CAF816E000BF01B000F0BCB800BF6D
:103820004FF090404FF488510122FDF735F83046B3
:1038300030210122FDF730F828464FF4C6610122FD
:10384000FDF72AF84FF090404FF488510122FDF720
:1038500023F8304630210122FDF71EF828464FF4A8
:10386000C6610122FDF718F84FF090404FF4004177
:103870000122FDF711F84FF0904042210022FDF7A0
:103880000BF828464FF400610022FDF705F8BAF165
:10389000030F05D31BF8040000F086F812E000BF08
:1038A0004FF090404FF488510122FCF7F5FF30466D
:1038B00030210122FCF7F0FF28464FF4C6610122B7
:1038C000FCF7EAFF4FF090404FF488510122FCF7DB
:1038D000E3FF304630210122FCF7DEFF28464FF49B
:1038E000C6610122FCF7D8FF48F2020404F140004F
:1038F00081B24FF090400022FCF7CEFF28464FF4F3
:1039000000610122FCF7C8FFBAF1020F04D31BF8D3
:10391000090000F049F811E04FF090404FF4885151
:103920000122FCF7B9FF304630210122FCF7B4FF39
:1039300028464FF4C6610122FCF7AEFF4FF09040DD
:103940004FF488510122FCF7A7FF304630210122B5
:10395000FCF7A2FF28464FF4C6610122FCF79CFF4A
:1039600004F13E0081B24FF090400022FCF794FF3A
:1039700028464FF400610022FCF78EFF4FF0904084
:1039800002210122FCF788FF1BF8080001B000F0BB
:1039900005B800F009B830BCBDE8C08F30BCBDE848
:1039A000C04FFFF7F6BF000070B540F60005C4F643
:1039B0000005A5F58066044600F00102304620218E
:1039C000FCF76AFFC4F3400230461021FCF764FFA5
:1039D000C4F3800228464FF40071FCF75DFFC4F386
:1039E000C00228462021FCF757FFC4F300124FF015
:1039F00090404FF48071FCF74FFFC4F3401228460B
:103A00004FF48061FCF748FFC4F380124FF0904000
:103A10004FF48051FCF740FFE20928461021BDE831
:103A20007040FCF739BFF1EE100A4FF6FF71C0F29B
:103A3000C03120EA010040F04070E1EE100A70470A
:103A4000000000000000000001020304060708094E
:103A50000000000001020304A0860100400D0300E5
:103A6000801A060000350C0040420F0080841E00C2
:103A700000093D0000127A000024F40000366E01B7
:103A80000048E801006CDC020200000004000000B5
:103A90000800000010000000FDFFFFFFFBFFFFFF1C
:103AA000F7FFFFFFEFFFFFFF000000000400000032
:103AB0000200000008000000D83A000800000020C2
:103AC00020000000F0010008F83A00082000002063
:103AD000D007000010020008010A0A0A0A000000CC
:103AE000010000001000000000093D00C0F9A4B072
:083AF000999282F88090BF005A
:040000050800018D61
:00000001FF
